S0030000FC
S31500008000B8F0FF1FED870000418400003D840000AA
S315000080103D8400003D8400003D8400003D84000056
S315000080203D8400003D8400003D8400003D84000046
S315000080303D8400003D8400003D8400003D84000036
S315000080403D8400003D8400003D8400003D84000026
S31500008400DFF834104EF60850CEF2000001604CF250
S31500008410205142F20E00C4F2050001804DF62811EB
S3150000842042F20E00C4F205000180D22142F20000A1
S31500008430C4F205000180704700800000704700000C
S31500008440704700004FF2D401C4F20F01086840F0F3
S315000084501000086040F243114CF21000C4F2040010
S315000084600160704710B5002401E0C046641C43F665
S315000084708000C0F201008442F7DBBDE8104070477F
S3150000848008B548F23801C4F20401086840F478508F
S31500008490086010214FF2C800C4F20F000160FFF718
S315000084A0D1FF00F011F810214FF2C800C4F20F00FE
S315000084B00160FFF7C7FF10214FF2CC00C4F20F0096
S315000084C00160FFF7CFFFF6E710B5002144F20C007C
S315000084D0C4F206000170012145F20000C4F2060054
S315000084E00170152144F20100C4F2060001709A21C0
S315000084F044F20000C4F20600017044F20301C4F223
S315000085000601087800F01F00087044F20600C4F265
S315000085100600007800F002000028F6D044F20600BB
S31500008520C4F20600007800F010000028F6D144F2EC
S315000085300600C4F20600007800F00C000828F6D108
S31500008540432144F20400C4F206000170002144F203
S315000085500500C4F206000170152144F20100C4F2C0
S3150000856006000170402144F20500C4F206000170C5
S31500008570152144F20100C4F20600017044F206001F
S31500008580C4F20600007800F020000028F6D044F27D
S315000085900600C4F20600007800F040000028F6D07D
S315000085A04FF20000C4F2010004684FF20001C4F269
S315000085B00101086840F0FF0008604FF4803148F27E
S315000085C04400C4F2040001604FF20000C4F201004E
S315000085D004601A2144F20000C4F20600017044F25D
S315000085E00600C4F20600007800F00C000C28F6D154
S315000085F048F20401C4F20401086840F4A0200860AF
S31500008600022148F24800C4F20400016046F6004127
S31500008610C0F2DC21DFF808000160BDE810407047B9
S3150000862000E0FF1F10B500F065F8DFF82440206871
S3150000863010B1804700202060DFF81440A06810B118
S3150000864080470020A06000F0AFF8BDE810407047FA
S3150000865008E0FF1F10B5044600F004F82046BDE808
S3150000866010407047CBB2202A2DD3414211F0030CA3
S3150000867007D0A2EB0C02D9B200F8011BBCF1010C29
S31500008680FAD12BB1190441EA036141EA03210B43F4
S315000086905FEA521C0DD0036043608360C3600361D0
S315000086A04361836100F11C0120300B60BCF1010CB9
S315000086B0F1D102F01F01890803D040F8043B491E9E
S315000086C0FBD102F0030222B1D9B200F8011B521EFF
S315000086D0FBD1704710B5DFF8164001E08047241D36
S315000086E014B120680028F9D1BDE81040704704E0B5
S315000086F0FF1F000010B5DFF81E4006E010680021DD
S31500008700206090685268C94390472268002AF5D1D4
S31500008710BDE81040704794E0FF1F0000704700005E
S31500008720884224D01AB320E011F003030AD110F0D6
S31500008730030307D1042A05D351F8043B40F8043B50
S31500008740121F12E011F001030AD110F0010307D144
S31500008750022A05D331F9023B20F8023B921E04E0BF
S3150000876011F8013B00F8013B521E002ADCD170478C
S3150000877010B5DFF82E4008E06068A268FFF7D0FF6A
S315000087806068A168FFF7CAFF0C3421680029F3D19D
S3150000879060680028F0D1A0680028EDD1BDE810403F
S315000087A07047488800000000DFF804301847C046CC
S315000087B0BD870000F7460000F7460000DFF8081006
S315000087C01820ABBEF746C04626000200DFF81000B0
S315000087D0DFF81020DFF810300021121A1847C046C3
S315000087E008E0FF1F9CE0FF1F55860000FFF7E2FF31
S315000087F0FFF706FEDFF83A00002805D0854681B06F
S315000088000020C043009001B0FFF7E0FFDFF826002C
S31500008810002801D0FFF7ACFFFFF75CFFFFF7CCFFA6
S315000088200020DFF81610FFF72BFE0020FFF7FAFEF8
S31500008830FEE7B8F0FF1F4888000098E0FF1F000021
S30D00008840006CDC0200000000E0
S315000088484088000000E0FF1F08000000000000004C
S30D00008858000000000000000012
S705000087EC87
